{
  "_format": "hh-sol-artifact-1",
  "contractName": "Registry",
  "sourceName": "contracts/relay/Registry.sol",
  "abi": [
    {
      "inputs": [
        {
          "internalType": "address",
          "name": "_initialOwner",
          "type": "address"
        },
        {
          "internalType": "bool",
          "name": "_registrationOpen",
          "type": "bool"
        }
      ],
      "stateMutability": "nonpayable",
      "type": "constructor"
    },
    {
      "inputs": [
        {
          "internalType": "address",
          "name": "owner",
          "type": "address"
        }
      ],
      "name": "OwnableInvalidOwner",
      "type": "error"
    },
    {
      "inputs": [
        {
          "internalType": "address",
          "name": "account",
          "type": "address"
        }
      ],
      "name": "OwnableUnauthorizedAccount",
      "type": "error"
    },
    {
      "inputs": [],
      "name": "ReentrancyGuardReentrantCall",
      "type": "error"
    },
    {
      "anonymous": false,
      "inputs": [
        {
          "indexed": true,
          "internalType": "address",
          "name": "previousOwner",
          "type": "address"
        },
        {
          "indexed": true,
          "internalType": "address",
          "name": "newOwner",
          "type": "address"
        }
      ],
      "name": "OwnershipTransferred",
      "type": "event"
    },
    {
      "anonymous": false,
      "inputs": [
        {
          "indexed": false,
          "internalType": "bool",
          "name": "isOpen",
          "type": "bool"
        }
      ],
      "name": "RegistrationStatusChanged",
      "type": "event"
    },
    {
      "anonymous": false,
      "inputs": [
        {
          "indexed": true,
          "internalType": "address",
          "name": "relayAddress",
          "type": "address"
        }
      ],
      "name": "RelayDeactivated",
      "type": "event"
    },
    {
      "anonymous": false,
      "inputs": [
        {
          "indexed": true,
          "internalType": "address",
          "name": "relayAddress",
          "type": "address"
        }
      ],
      "name": "RelayReactivated",
      "type": "event"
    },
    {
      "anonymous": false,
      "inputs": [
        {
          "indexed": true,
          "internalType": "address",
          "name": "relayAddress",
          "type": "address"
        },
        {
          "indexed": true,
          "internalType": "address",
          "name": "owner",
          "type": "address"
        },
        {
          "indexed": false,
          "internalType": "string",
          "name": "url",
          "type": "string"
        }
      ],
      "name": "RelayRegistered",
      "type": "event"
    },
    {
      "anonymous": false,
      "inputs": [
        {
          "indexed": true,
          "internalType": "address",
          "name": "relayAddress",
          "type": "address"
        },
        {
          "indexed": false,
          "internalType": "string",
          "name": "newUrl",
          "type": "string"
        },
        {
          "indexed": false,
          "internalType": "string",
          "name": "newMetadata",
          "type": "string"
        }
      ],
      "name": "RelayUpdated",
      "type": "event"
    },
    {
      "inputs": [
        {
          "internalType": "uint256",
          "name": "",
          "type": "uint256"
        }
      ],
      "name": "allRelays",
      "outputs": [
        {
          "internalType": "address",
          "name": "",
          "type": "address"
        }
      ],
      "stateMutability": "view",
      "type": "function"
    },
    {
      "inputs": [
        {
          "internalType": "address",
          "name": "_relayAddress",
          "type": "address"
        }
      ],
      "name": "deactivateRelay",
      "outputs": [],
      "stateMutability": "nonpayable",
      "type": "function"
    },
    {
      "inputs": [
        {
          "internalType": "string",
          "name": "_url",
          "type": "string"
        }
      ],
      "name": "findRelayByUrl",
      "outputs": [
        {
          "internalType": "address",
          "name": "",
          "type": "address"
        }
      ],
      "stateMutability": "view",
      "type": "function"
    },
    {
      "inputs": [
        {
          "internalType": "bool",
          "name": "_onlyActive",
          "type": "bool"
        },
        {
          "internalType": "uint256",
          "name": "_offset",
          "type": "uint256"
        },
        {
          "internalType": "uint256",
          "name": "_limit",
          "type": "uint256"
        }
      ],
      "name": "getAllRelays",
      "outputs": [
        {
          "components": [
            {
              "internalType": "address[]",
              "name": "relays",
              "type": "address[]"
            },
            {
              "internalType": "uint256",
              "name": "total",
              "type": "uint256"
            },
            {
              "internalType": "uint256",
              "name": "offset",
              "type": "uint256"
            },
            {
              "internalType": "uint256",
              "name": "limit",
              "type": "uint256"
            }
          ],
          "internalType": "struct Registry.RelayPage",
          "name": "",
          "type": "tuple"
        }
      ],
      "stateMutability": "view",
      "type": "function"
    },
    {
      "inputs": [
        {
          "internalType": "address",
          "name": "_owner",
          "type": "address"
        }
      ],
      "name": "getRelayCountByOwner",
      "outputs": [
        {
          "internalType": "uint256",
          "name": "",
          "type": "uint256"
        }
      ],
      "stateMutability": "view",
      "type": "function"
    },
    {
      "inputs": [
        {
          "internalType": "address",
          "name": "_relayAddress",
          "type": "address"
        }
      ],
      "name": "getRelayInfo",
      "outputs": [
        {
          "internalType": "address",
          "name": "owner",
          "type": "address"
        },
        {
          "internalType": "string",
          "name": "url",
          "type": "string"
        },
        {
          "internalType": "string",
          "name": "metadata",
          "type": "string"
        },
        {
          "internalType": "uint256",
          "name": "registrationTime",
          "type": "uint256"
        },
        {
          "internalType": "bool",
          "name": "active",
          "type": "bool"
        }
      ],
      "stateMutability": "view",
      "type": "function"
    },
    {
      "inputs": [
        {
          "internalType": "address",
          "name": "_owner",
          "type": "address"
        },
        {
          "internalType": "uint256",
          "name": "_offset",
          "type": "uint256"
        },
        {
          "internalType": "uint256",
          "name": "_limit",
          "type": "uint256"
        }
      ],
      "name": "getRelaysByOwner",
      "outputs": [
        {
          "components": [
            {
              "internalType": "address[]",
              "name": "relays",
              "type": "address[]"
            },
            {
              "internalType": "uint256",
              "name": "total",
              "type": "uint256"
            },
            {
              "internalType": "uint256",
              "name": "offset",
              "type": "uint256"
            },
            {
              "internalType": "uint256",
              "name": "limit",
              "type": "uint256"
            }
          ],
          "internalType": "struct Registry.RelayPage",
          "name": "",
          "type": "tuple"
        }
      ],
      "stateMutability": "view",
      "type": "function"
    },
    {
      "inputs": [
        {
          "internalType": "address",
          "name": "",
          "type": "address"
        }
      ],
      "name": "isRegisteredRelay",
      "outputs": [
        {
          "internalType": "bool",
          "name": "",
          "type": "bool"
        }
      ],
      "stateMutability": "view",
      "type": "function"
    },
    {
      "inputs": [
        {
          "internalType": "address",
          "name": "_relayAddress",
          "type": "address"
        }
      ],
      "name": "isRelayActive",
      "outputs": [
        {
          "internalType": "bool",
          "name": "",
          "type": "bool"
        }
      ],
      "stateMutability": "view",
      "type": "function"
    },
    {
      "inputs": [],
      "name": "owner",
      "outputs": [
        {
          "internalType": "address",
          "name": "",
          "type": "address"
        }
      ],
      "stateMutability": "view",
      "type": "function"
    },
    {
      "inputs": [
        {
          "internalType": "address",
          "name": "",
          "type": "address"
        },
        {
          "internalType": "uint256",
          "name": "",
          "type": "uint256"
        }
      ],
      "name": "ownerRelays",
      "outputs": [
        {
          "internalType": "address",
          "name": "",
          "type": "address"
        }
      ],
      "stateMutability": "view",
      "type": "function"
    },
    {
      "inputs": [
        {
          "internalType": "address",
          "name": "_relayAddress",
          "type": "address"
        }
      ],
      "name": "reactivateRelay",
      "outputs": [],
      "stateMutability": "nonpayable",
      "type": "function"
    },
    {
      "inputs": [
        {
          "internalType": "address",
          "name": "_relayAddress",
          "type": "address"
        },
        {
          "internalType": "string",
          "name": "_url",
          "type": "string"
        },
        {
          "internalType": "string",
          "name": "_metadata",
          "type": "string"
        }
      ],
      "name": "registerRelay",
      "outputs": [],
      "stateMutability": "nonpayable",
      "type": "function"
    },
    {
      "inputs": [],
      "name": "registrationOpen",
      "outputs": [
        {
          "internalType": "bool",
          "name": "",
          "type": "bool"
        }
      ],
      "stateMutability": "view",
      "type": "function"
    },
    {
      "inputs": [
        {
          "internalType": "address",
          "name": "",
          "type": "address"
        }
      ],
      "name": "relays",
      "outputs": [
        {
          "internalType": "address",
          "name": "owner",
          "type": "address"
        },
        {
          "internalType": "string",
          "name": "url",
          "type": "string"
        },
        {
          "internalType": "string",
          "name": "metadata",
          "type": "string"
        },
        {
          "internalType": "uint256",
          "name": "registrationTime",
          "type": "uint256"
        },
        {
          "internalType": "bool",
          "name": "active",
          "type": "bool"
        }
      ],
      "stateMutability": "view",
      "type": "function"
    },
    {
      "inputs": [
        {
          "internalType": "string",
          "name": "",
          "type": "string"
        }
      ],
      "name": "relaysByUrl",
      "outputs": [
        {
          "internalType": "address",
          "name": "",
          "type": "address"
        }
      ],
      "stateMutability": "view",
      "type": "function"
    },
    {
      "inputs": [],
      "name": "renounceOwnership",
      "outputs": [],
      "stateMutability": "nonpayable",
      "type": "function"
    },
    {
      "inputs": [
        {
          "internalType": "bool",
          "name": "_isOpen",
          "type": "bool"
        }
      ],
      "name": "setRegistrationOpen",
      "outputs": [],
      "stateMutability": "nonpayable",
      "type": "function"
    },
    {
      "inputs": [
        {
          "internalType": "address",
          "name": "newOwner",
          "type": "address"
        }
      ],
      "name": "transferOwnership",
      "outputs": [],
      "stateMutability": "nonpayable",
      "type": "function"
    },
    {
      "inputs": [
        {
          "internalType": "address",
          "name": "_relayAddress",
          "type": "address"
        },
        {
          "internalType": "string",
          "name": "_newUrl",
          "type": "string"
        },
        {
          "internalType": "string",
          "name": "_newMetadata",
          "type": "string"
        }
      ],
      "name": "updateRelay",
      "outputs": [],
      "stateMutability": "nonpayable",
      "type": "function"
    },
    {
      "stateMutability": "payable",
      "type": "receive"
    }
  ],
  "bytecode": "0x608060405234801561001057600080fd5b50604051613c25380380613c25833981810160405281019061003291906102ab565b81600073ffffffffffffffffffffffffffffffffffffffff168173ffffffffffffffffffffffffffffffffffffffff16036100a55760006040517f1e4fbdf700000000000000000000000000000000000000000000000000000000815260040161009c91906102fa565b60405180910390fd5b6100b48161014c60201b60201c565b5060018081905550600073ffffffffffffffffffffffffffffffffffffffff168273ffffffffffffffffffffffffffffffffffffffff160361012b576040517f08c379a000000000000000000000000000000000000000000000000000000000815260040161012290610372565b60405180910390fd5b80600760006101000a81548160ff0219169083151502179055505050610392565b60008060009054906101000a900473ffffffffffffffffffffffffffffffffffffffff169050816000806101000a81548173ffffffffffffffffffffffffffffffffffffffff021916908373ffffffffffffffffffffffffffffffffffffffff1602179055508173ffffffffffffffffffffffffffffffffffffffff168173ffffffffffffffffffffffffffffffffffffffff167f8be0079c531659141344cd1fd0a4f28419497f9722a3daafe3b4186f6b6457e060405160405180910390a35050565b600080fd5b600073ffffffffffffffffffffffffffffffffffffffff82169050919050565b600061024082610215565b9050919050565b61025081610235565b811461025b57600080fd5b50565b60008151905061026d81610247565b92915050565b60008115159050919050565b61028881610273565b811461029357600080fd5b50565b6000815190506102a58161027f565b92915050565b600080604083850312156102c2576102c1610210565b5b60006102d08582860161025e565b92505060206102e185828601610296565b9150509250929050565b6102f481610235565b82525050565b600060208201905061030f60008301846102eb565b92915050565b600082825260208201905092915050565b7f52656769737472793a20496e76616c6964206f776e6572000000000000000000600082015250565b600061035c601783610315565b915061036782610326565b602082019050919050565b6000602082019050818103600083015261038b8161034f565b9050919050565b613884806103a16000396000f3fe6080604052600436106101235760003560e01c8063749e68b2116100a0578063cb8d406f11610064578063cb8d406f14610440578063cbcca31514610481578063e75d43c0146104aa578063e7c80979146104e7578063f2fde38b146105105761012a565b8063749e68b214610349578063793509c0146103725780638da5cb5b146103af578063b789ce9d146103da578063ca8bad5b146104175761012a565b8063597ec4ce116100e7578063597ec4ce146102505780636465e0871461028d5780636bb249c4146102ca578063715018a614610307578063736f88cd1461031e5761012a565b80631eba9fa41461012f57806330067bc81461016c5780634043065f146101955780634653e0b6146101d25780634b84219e1461020f5761012a565b3661012a57005b600080fd5b34801561013b57600080fd5b50610156600480360381019061015191906124ca565b610539565b604051610163919061267f565b60405180910390f35b34801561017857600080fd5b50610193600480360381019061018e91906126a1565b6109a2565b005b3480156101a157600080fd5b506101bc60048036038101906101b791906126fa565b6109fe565b6040516101c9919061267f565b60405180910390f35b3480156101de57600080fd5b506101f960048036038101906101f4919061274d565b610c55565b6040516102069190612789565b60405180910390f35b34801561021b57600080fd5b506102366004803603810190610231919061274d565b610c75565b604051610247959493929190612852565b60405180910390f35b34801561025c57600080fd5b50610277600480360381019061027291906128b3565b610ebc565b60405161028491906128f3565b60405180910390f35b34801561029957600080fd5b506102b460048036038101906102af9190612a43565b610f0a565b6040516102c191906128f3565b60405180910390f35b3480156102d657600080fd5b506102f160048036038101906102ec9190612aec565b610f53565b6040516102fe91906128f3565b60405180910390f35b34801561031357600080fd5b5061031c610f9e565b005b34801561032a57600080fd5b50610333610fb2565b6040516103409190612789565b60405180910390f35b34801561035557600080fd5b50610370600480360381019061036b9190612b39565b610fc5565b005b34801561037e57600080fd5b506103996004803603810190610394919061274d565b611430565b6040516103a69190612789565b60405180910390f35b3480156103bb57600080fd5b506103c46114e4565b6040516103d191906128f3565b60405180910390f35b3480156103e657600080fd5b5061040160048036038101906103fc919061274d565b61150d565b60405161040e9190612bce565b60405180910390f35b34801561042357600080fd5b5061043e6004803603810190610439919061274d565b611559565b005b34801561044c57600080fd5b506104676004803603810190610462919061274d565b611822565b604051610478959493929190612852565b60405180910390f35b34801561048d57600080fd5b506104a860048036038101906104a39190612b39565b611995565b005b3480156104b657600080fd5b506104d160048036038101906104cc9190612be9565b611f2c565b6040516104de91906128f3565b60405180910390f35b3480156104f357600080fd5b5061050e6004803603810190610509919061274d565b611f6b565b005b34801561051c57600080fd5b506105376004803603810190610532919061274d565b6121f8565b005b610541612420565b600060058054905090508084106105c4576040518060800160405280600067ffffffffffffffff81111561057857610577612918565b5b6040519080825280602002602001820160405280156105a65781602001602082028036833780820191505090505b5081526020018281526020018581526020018481525091505061099b565b8415610850576000805b828110156106855760026000600583815481106105ee576105ed612c16565b5b9060005260206000200160009054906101000a900473ffffffffffffffffffffffffffffffffffffffff1673ffffffffffffffffffffffffffffffffffffffff1673ffffffffffffffffffffffffffffffffffffffff16815260200190815260200160002060040160009054906101000a900460ff161561067857818061067490612c74565b9250505b80806001019150506105ce565b50600084905081811115610697578190505b60008167ffffffffffffffff8111156106b3576106b2612918565b5b6040519080825280602002602001820160405280156106e15781602001602082028036833780820191505090505b50905060008060005b86811080156106f857508483105b156108215760006005828154811061071357610712612c16565b5b9060005260206000200160009054906101000a900473ffffffffffffffffffffffffffffffffffffffff169050600260008273ffffffffffffffffffffffffffffffffffffffff1673ffffffffffffffffffffffffffffffffffffffff16815260200190815260200160002060040160009054906101000a900460ff161561080d578a83106107fd57808585815181106107b0576107af612c16565b5b602002602001019073ffffffffffffffffffffffffffffffffffffffff16908173ffffffffffffffffffffffffffffffffffffffff168152505083806107f590612c74565b94505061080c565b828061080890612c74565b9350505b5b50808061081990612c74565b9150506106ea565b5060405180608001604052808481526020018681526020018a815260200183815250965050505050505061099b565b60008390508181866108629190612cbc565b11156108775784826108749190612cf0565b90505b60008167ffffffffffffffff81111561089357610892612918565b5b6040519080825280602002602001820160405280156108c15781602001602082028036833780820191505090505b50905060005b8281101561097357600581886108dd9190612cbc565b815481106108ee576108ed612c16565b5b9060005260206000200160009054906101000a900473ffffffffffffffffffffffffffffffffffffffff1682828151811061092c5761092b612c16565b5b602002602001019073ffffffffffffffffffffffffffffffffffffffff16908173ffffffffffffffffffffffffffffffffffffffff168152505080806001019150506108c7565b5060405180608001604052808281526020018481526020018781526020018381525093505050505b9392505050565b6109aa61227e565b80600760006101000a81548160ff0219169083151502179055507f1a30f630d0950ddfc90d43ec4e405fd012ddb4ba669dd2bd5e95439631c4221f816040516109f39190612789565b60405180910390a150565b610a06612420565b6000600460008673ffffffffffffffffffffffffffffffffffffffff1673ffffffffffffffffffffffffffffffffffffffff168152602001908152602001600020805490509050808410610ac6576040518060800160405280600067ffffffffffffffff811115610a7a57610a79612918565b5b604051908082528060200260200182016040528015610aa85781602001602082028036833780820191505090505b50815260200182815260200185815260200184815250915050610c4e565b6000839050818186610ad89190612cbc565b1115610aed578482610aea9190612cf0565b90505b60008167ffffffffffffffff811115610b0957610b08612918565b5b604051908082528060200260200182016040528015610b375781602001602082028036833780820191505090505b50905060005b82811015610c2657600460008973ffffffffffffffffffffffffffffffffffffffff1673ffffffffffffffffffffffffffffffffffffffff1681526020019081526020016000208188610b909190612cbc565b81548110610ba157610ba0612c16565b5b9060005260206000200160009054906101000a900473ffffffffffffffffffffffffffffffffffffffff16828281518110610bdf57610bde612c16565b5b602002602001019073ffffffffffffffffffffffffffffffffffffffff16908173ffffffffffffffffffffffffffffffffffffffff16815250508080600101915050610b3d565b5060405180608001604052808281526020018481526020018781526020018381525093505050505b9392505050565b60036020528060005260406000206000915054906101000a900460ff1681565b6000606080600080600360008773ffffffffffffffffffffffffffffffffffffffff1673ffffffffffffffffffffffffffffffffffffffff16815260200190815260200160002060009054906101000a900460ff16610d09576040517f08c379a0000000000000000000000000000000000000000000000000000000008152600401610d0090612d70565b60405180910390fd5b6000600260008873ffffffffffffffffffffffffffffffffffffffff1673ffffffffffffffffffffffffffffffffffffffff16815260200190815260200160002090508060000160009054906101000a900473ffffffffffffffffffffffffffffffffffffffff16816001018260020183600301548460040160009054906101000a900460ff16838054610d9c90612dbf565b80601f0160208091040260200160405190810160405280929190818152602001828054610dc890612dbf565b8015610e155780601f10610dea57610100808354040283529160200191610e15565b820191906000526020600020905b815481529060010190602001808311610df857829003601f168201915b50505050509350828054610e2890612dbf565b80601f0160208091040260200160405190810160405280929190818152602001828054610e5490612dbf565b8015610ea15780601f10610e7657610100808354040283529160200191610ea1565b820191906000526020600020905b815481529060010190602001808311610e8457829003601f168201915b50505050509250955095509550955095505091939590929450565b60046020528160005260406000208181548110610ed857600080fd5b906000526020600020016000915091509054906101000a900473ffffffffffffffffffffffffffffffffffffffff1681565b6006818051602081018201805184825260208301602085012081835280955050505050506000915054906101000a900473ffffffffffffffffffffffffffffffffffffffff1681565b600060068383604051610f67929190612e20565b908152602001604051809103902060009054906101000a900473ffffffffffffffffffffffffffffffffffffffff16905092915050565b610fa661227e565b610fb06000612305565b565b600760009054906101000a900460ff1681565b610fcd6123c9565b600360008673ffffffffffffffffffffffffffffffffffffffff1673ffffffffffffffffffffffffffffffffffffffff16815260200190815260200160002060009054906101000a900460ff16611059576040517f08c379a000000000000000000000000000000000000000000000000000000000815260040161105090612d70565b60405180910390fd5b3373ffffffffffffffffffffffffffffffffffffffff16600260008773ffffffffffffffffffffffffffffffffffffffff1673ffffffffffffffffffffffffffffffffffffffff16815260200190815260200160002060000160009054906101000a900473ffffffffffffffffffffffffffffffffffffffff1673ffffffffffffffffffffffffffffffffffffffff1614611129576040517f08c379a000000000000000000000000000000000000000000000000000000000815260040161112090612e85565b60405180910390fd5b600260008673ffffffffffffffffffffffffffffffffffffffff1673ffffffffffffffffffffffffffffffffffffffff16815260200190815260200160002060040160009054906101000a900460ff166111b8576040517f08c379a00000000000000000000000000000000000000000000000000000000081526004016111af90612ef1565b60405180910390fd5b6000600260008773ffffffffffffffffffffffffffffffffffffffff1673ffffffffffffffffffffffffffffffffffffffff168152602001908152602001600020905060008585905011801561123d57508484604051611219929190612f41565b6040518091039020816001016040516112329190612ff2565b604051809103902014155b156113a957600073ffffffffffffffffffffffffffffffffffffffff166006868660405161126c929190612e20565b908152602001604051809103902060009054906101000a900473ffffffffffffffffffffffffffffffffffffffff1673ffffffffffffffffffffffffffffffffffffffff16146112f1576040517f08c379a00000000000000000000000000000000000000000000000000000000081526004016112e890613055565b60405180910390fd5b600681600101604051611304919061310d565b908152602001604051809103902060006101000a81549073ffffffffffffffffffffffffffffffffffffffff021916905584848260010191826113489291906132c6565b50856006868660405161135c929190612e20565b908152602001604051809103902060006101000a81548173ffffffffffffffffffffffffffffffffffffffff021916908373ffffffffffffffffffffffffffffffffffffffff1602179055505b60008383905011156113ca5782828260020191826113c89291906132c6565b505b8573ffffffffffffffffffffffffffffffffffffffff167fd37d19d729ea90a931f69b7fb6c0a0aa2728b4224f792df7f80655e9078dc649826001018360020160405161141892919061341a565b60405180910390a25061142961240f565b5050505050565b6000600360008373ffffffffffffffffffffffffffffffffffffffff1673ffffffffffffffffffffffffffffffffffffffff16815260200190815260200160002060009054906101000a900460ff1661148c57600090506114df565b600260008373ffffffffffffffffffffffffffffffffffffffff1673ffffffffffffffffffffffffffffffffffffffff16815260200190815260200160002060040160009054906101000a900460ff1690505b919050565b60008060009054906101000a900473ffffffffffffffffffffffffffffffffffffffff16905090565b6000600460008373ffffffffffffffffffffffffffffffffffffffff1673ffffffffffffffffffffffffffffffffffffffff168152602001908152602001600020805490509050919050565b600360008273ffffffffffffffffffffffffffffffffffffffff1673ffffffffffffffffffffffffffffffffffffffff16815260200190815260200160002060009054906101000a900460ff166115e5576040517f08c379a00000000000000000000000000000000000000000000000000000000081526004016115dc90612d70565b60405180910390fd5b3373ffffffffffffffffffffffffffffffffffffffff16600260008373ffffffffffffffffffffffffffffffffffffffff1673ffffffffffffffffffffffffffffffffffffffff16815260200190815260200160002060000160009054906101000a900473ffffffffffffffffffffffffffffffffffffffff1673ffffffffffffffffffffffffffffffffffffffff1614806116b357506116846114e4565b73ffffffffffffffffffffffffffffffffffffffff163373ffffffffffffffffffffffffffffffffffffffff16145b6116f2576040517f08c379a00000000000000000000000000000000000000000000000000000000081526004016116e99061349d565b60405180910390fd5b600260008273ffffffffffffffffffffffffffffffffffffffff1673ffffffffffffffffffffffffffffffffffffffff16815260200190815260200160002060040160009054906101000a900460ff16611781576040517f08c379a000000000000000000000000000000000000000000000000000000000815260040161177890613509565b60405180910390fd5b6000600260008373ffffffffffffffffffffffffffffffffffffffff1673ffffffffffffffffffffffffffffffffffffffff16815260200190815260200160002060040160006101000a81548160ff0219169083151502179055508073ffffffffffffffffffffffffffffffffffffffff167fcc273b6278f7a1b4bd4f628f87d6063d8a56616c4cfa0028cde82a3039d1abde60405160405180910390a250565b60026020528060005260406000206000915090508060000160009054906101000a900473ffffffffffffffffffffffffffffffffffffffff169080600101805461186b90612dbf565b80601f016020809104026020016040519081016040528092919081815260200182805461189790612dbf565b80156118e45780601f106118b9576101008083540402835291602001916118e4565b820191906000526020600020905b8154815290600101906020018083116118c757829003601f168201915b5050505050908060020180546118f990612dbf565b80601f016020809104026020016040519081016040528092919081815260200182805461192590612dbf565b80156119725780601f1061194757610100808354040283529160200191611972565b820191906000526020600020905b81548152906001019060200180831161195557829003601f168201915b5050505050908060030154908060040160009054906101000a900460ff16905085565b61199d6123c9565b600760009054906101000a900460ff166119ec576040517f08c379a00000000000000000000000000000000000000000000000000000000081526004016119e390613575565b60405180910390fd5b600073ffffffffffffffffffffffffffffffffffffffff168573ffffffffffffffffffffffffffffffffffffffff1603611a5b576040517f08c379a0000000000000000000000000000000000000000000000000000000008152600401611a52906135e1565b60405180910390fd5b6000853b905060008111611aa4576040517f08c379a0000000000000000000000000000000000000000000000000000000008152600401611a9b90613673565b60405180910390fd5b60008585905011611aea576040517f08c379a0000000000000000000000000000000000000000000000000000000008152600401611ae1906136df565b60405180910390fd5b600360008773ffffffffffffffffffffffffffffffffffffffff1673ffffffffffffffffffffffffffffffffffffffff16815260200190815260200160002060009054906101000a900460ff1615611b77576040517f08c379a0000000000000000000000000000000000000000000000000000000008152600401611b6e90613771565b60405180910390fd5b600073ffffffffffffffffffffffffffffffffffffffff1660068686604051611ba1929190612e20565b908152602001604051809103902060009054906101000a900473ffffffffffffffffffffffffffffffffffffffff1673ffffffffffffffffffffffffffffffffffffffff1614611c26576040517f08c379a0000000000000000000000000000000000000000000000000000000008152600401611c1d90613055565b60405180910390fd5b6000600260008873ffffffffffffffffffffffffffffffffffffffff1673ffffffffffffffffffffffffffffffffffffffff1681526020019081526020016000209050338160000160006101000a81548173ffffffffffffffffffffffffffffffffffffffff021916908373ffffffffffffffffffffffffffffffffffffffff1602179055508585826001019182611cbf9291906132c6565b508383826002019182611cd39291906132c6565b5042816003018190555060018160040160006101000a81548160ff0219169083151502179055506001600360008973ffffffffffffffffffffffffffffffffffffffff1673ffffffffffffffffffffffffffffffffffffffff16815260200190815260200160002060006101000a81548160ff021916908315150217905550600460003373ffffffffffffffffffffffffffffffffffffffff1673ffffffffffffffffffffffffffffffffffffffff168152602001908152602001600020879080600181540180825580915050600190039060005260206000200160009091909190916101000a81548173ffffffffffffffffffffffffffffffffffffffff021916908373ffffffffffffffffffffffffffffffffffffffff1602179055506005879080600181540180825580915050600190039060005260206000200160009091909190916101000a81548173ffffffffffffffffffffffffffffffffffffffff021916908373ffffffffffffffffffffffffffffffffffffffff1602179055508660068787604051611e68929190612e20565b908152602001604051809103902060006101000a81548173ffffffffffffffffffffffffffffffffffffffff021916908373ffffffffffffffffffffffffffffffffffffffff1602179055503373ffffffffffffffffffffffffffffffffffffffff168773ffffffffffffffffffffffffffffffffffffffff167f3c47317e178fb2c70c31cd295f9fa96af6eb888f4cb7a283ff9432452bb3b3de8888604051611f139291906137be565b60405180910390a35050611f2561240f565b5050505050565b60058181548110611f3c57600080fd5b906000526020600020016000915054906101000a900473ffffffffffffffffffffffffffffffffffffffff1681565b600360008273ffffffffffffffffffffffffffffffffffffffff1673ffffffffffffffffffffffffffffffffffffffff16815260200190815260200160002060009054906101000a900460ff16611ff7576040517f08c379a0000000000000000000000000000000000000000000000000000000008152600401611fee90612d70565b60405180910390fd5b3373ffffffffffffffffffffffffffffffffffffffff16600260008373ffffffffffffffffffffffffffffffffffffffff1673ffffffffffffffffffffffffffffffffffffffff16815260200190815260200160002060000160009054906101000a900473ffffffffffffffffffffffffffffffffffffffff1673ffffffffffffffffffffffffffffffffffffffff16146120c7576040517f08c379a00000000000000000000000000000000000000000000000000000000081526004016120be90612e85565b60405180910390fd5b600260008273ffffffffffffffffffffffffffffffffffffffff1673ffffffffffffffffffffffffffffffffffffffff16815260200190815260200160002060040160009054906101000a900460ff1615612157576040517f08c379a000000000000000000000000000000000000000000000000000000000815260040161214e9061382e565b60405180910390fd5b6001600260008373ffffffffffffffffffffffffffffffffffffffff1673ffffffffffffffffffffffffffffffffffffffff16815260200190815260200160002060040160006101000a81548160ff0219169083151502179055508073ffffffffffffffffffffffffffffffffffffffff167fc7a9978be652d9c424aafd80a3cd7d91652b6925acedfb3206a6bcd427c01ec960405160405180910390a250565b61220061227e565b600073ffffffffffffffffffffffffffffffffffffffff168173ffffffffffffffffffffffffffffffffffffffff16036122725760006040517f1e4fbdf700000000000000000000000000000000000000000000000000000000815260040161226991906128f3565b60405180910390fd5b61227b81612305565b50565b612286612418565b73ffffffffffffffffffffffffffffffffffffffff166122a46114e4565b73ffffffffffffffffffffffffffffffffffffffff1614612303576122c7612418565b6040517f118cdaa70000000000000000000000000000000000000000000000000000000081526004016122fa91906128f3565b60405180910390fd5b565b60008060009054906101000a900473ffffffffffffffffffffffffffffffffffffffff169050816000806101000a81548173ffffffffffffffffffffffffffffffffffffffff021916908373ffffffffffffffffffffffffffffffffffffffff1602179055508173ffffffffffffffffffffffffffffffffffffffff168173ffffffffffffffffffffffffffffffffffffffff167f8be0079c531659141344cd1fd0a4f28419497f9722a3daafe3b4186f6b6457e060405160405180910390a35050565b600260015403612405576040517f3ee5aeb500000000000000000000000000000000000000000000000000000000815260040160405180910390fd5b6002600181905550565b60018081905550565b600033905090565b6040518060800160405280606081526020016000815260200160008152602001600081525090565b6000604051905090565b600080fd5b600080fd5b60008115159050919050565b6124718161245c565b811461247c57600080fd5b50565b60008135905061248e81612468565b92915050565b6000819050919050565b6124a781612494565b81146124b257600080fd5b50565b6000813590506124c48161249e565b92915050565b6000806000606084860312156124e3576124e2612452565b5b60006124f18682870161247f565b9350506020612502868287016124b5565b9250506040612513868287016124b5565b9150509250925092565b600081519050919050565b600082825260208201905092915050565b6000819050602082019050919050565b600073ffffffffffffffffffffffffffffffffffffffff82169050919050565b600061257482612549565b9050919050565b61258481612569565b82525050565b6000612596838361257b565b60208301905092915050565b6000602082019050919050565b60006125ba8261251d565b6125c48185612528565b93506125cf83612539565b8060005b838110156126005781516125e7888261258a565b97506125f2836125a2565b9250506001810190506125d3565b5085935050505092915050565b61261681612494565b82525050565b6000608083016000830151848203600086015261263982826125af565b915050602083015161264e602086018261260d565b506040830151612661604086018261260d565b506060830151612674606086018261260d565b508091505092915050565b60006020820190508181036000830152612699818461261c565b905092915050565b6000602082840312156126b7576126b6612452565b5b60006126c58482850161247f565b91505092915050565b6126d781612569565b81146126e257600080fd5b50565b6000813590506126f4816126ce565b92915050565b60008060006060848603121561271357612712612452565b5b6000612721868287016126e5565b9350506020612732868287016124b5565b9250506040612743868287016124b5565b9150509250925092565b60006020828403121561276357612762612452565b5b6000612771848285016126e5565b91505092915050565b6127838161245c565b82525050565b600060208201905061279e600083018461277a565b92915050565b6127ad81612569565b82525050565b600081519050919050565b600082825260208201905092915050565b60005b838110156127ed5780820151818401526020810190506127d2565b60008484015250505050565b6000601f19601f8301169050919050565b6000612815826127b3565b61281f81856127be565b935061282f8185602086016127cf565b612838816127f9565b840191505092915050565b61284c81612494565b82525050565b600060a08201905061286760008301886127a4565b8181036020830152612879818761280a565b9050818103604083015261288d818661280a565b905061289c6060830185612843565b6128a9608083018461277a565b9695505050505050565b600080604083850312156128ca576128c9612452565b5b60006128d8858286016126e5565b92505060206128e9858286016124b5565b9150509250929050565b600060208201905061290860008301846127a4565b92915050565b600080fd5b600080fd5b7f4e487b7100000000000000000000000000000000000000000000000000000000600052604160045260246000fd5b612950826127f9565b810181811067ffffffffffffffff8211171561296f5761296e612918565b5b80604052505050565b6000612982612448565b905061298e8282612947565b919050565b600067ffffffffffffffff8211156129ae576129ad612918565b5b6129b7826127f9565b9050602081019050919050565b82818337600083830152505050565b60006129e66129e184612993565b612978565b905082815260208101848484011115612a0257612a01612913565b5b612a0d8482856129c4565b509392505050565b600082601f830112612a2a57612a2961290e565b5b8135612a3a8482602086016129d3565b91505092915050565b600060208284031215612a5957612a58612452565b5b600082013567ffffffffffffffff811115612a7757612a76612457565b5b612a8384828501612a15565b91505092915050565b600080fd5b600080fd5b60008083601f840112612aac57612aab61290e565b5b8235905067ffffffffffffffff811115612ac957612ac8612a8c565b5b602083019150836001820283011115612ae557612ae4612a91565b5b9250929050565b60008060208385031215612b0357612b02612452565b5b600083013567ffffffffffffffff811115612b2157612b20612457565b5b612b2d85828601612a96565b92509250509250929050565b600080600080600060608688031215612b5557612b54612452565b5b6000612b63888289016126e5565b955050602086013567ffffffffffffffff811115612b8457612b83612457565b5b612b9088828901612a96565b9450945050604086013567ffffffffffffffff811115612bb357612bb2612457565b5b612bbf88828901612a96565b92509250509295509295909350565b6000602082019050612be36000830184612843565b92915050565b600060208284031215612bff57612bfe612452565b5b6000612c0d848285016124b5565b91505092915050565b7f4e487b7100000000000000000000000000000000000000000000000000000000600052603260045260246000fd5b7f4e487b7100000000000000000000000000000000000000000000000000000000600052601160045260246000fd5b6000612c7f82612494565b91507fffffffffffffffffffffffffffffffffffffffffffffffffffffffffffffffff8203612cb157612cb0612c45565b5b600182019050919050565b6000612cc782612494565b9150612cd283612494565b9250828201905080821115612cea57612ce9612c45565b5b92915050565b6000612cfb82612494565b9150612d0683612494565b9250828203905081811115612d1e57612d1d612c45565b5b92915050565b7f52656769737472793a2052656c6179206e6f7420726567697374657265640000600082015250565b6000612d5a601e836127be565b9150612d6582612d24565b602082019050919050565b60006020820190508181036000830152612d8981612d4d565b9050919050565b7f4e487b7100000000000000000000000000000000000000000000000000000000600052602260045260246000fd5b60006002820490506001821680612dd757607f821691505b602082108103612dea57612de9612d90565b5b50919050565b600081905092915050565b6000612e078385612df0565b9350612e148385846129c4565b82840190509392505050565b6000612e2d828486612dfb565b91508190509392505050565b7f52656769737472793a204e6f742072656c6179206f776e657200000000000000600082015250565b6000612e6f6019836127be565b9150612e7a82612e39565b602082019050919050565b60006020820190508181036000830152612e9e81612e62565b9050919050565b7f52656769737472793a2052656c61792069732064656163746976617465640000600082015250565b6000612edb601e836127be565b9150612ee682612ea5565b602082019050919050565b60006020820190508181036000830152612f0a81612ece565b9050919050565b600081905092915050565b6000612f288385612f11565b9350612f358385846129c4565b82840190509392505050565b6000612f4e828486612f1c565b91508190509392505050565b60008190508160005260206000209050919050565b60008154612f7c81612dbf565b612f868186612f11565b94506001821660008114612fa15760018114612fb657612fe9565b60ff1983168652811515820286019350612fe9565b612fbf85612f5a565b60005b83811015612fe157815481890152600182019150602081019050612fc2565b838801955050505b50505092915050565b6000612ffe8284612f6f565b915081905092915050565b7f52656769737472793a2055524c20616c726561647920696e2075736500000000600082015250565b600061303f601c836127be565b915061304a82613009565b602082019050919050565b6000602082019050818103600083015261306e81613032565b9050919050565b60008190508160005260206000209050919050565b6000815461309781612dbf565b6130a18186612df0565b945060018216600081146130bc57600181146130d157613104565b60ff1983168652811515820286019350613104565b6130da85613075565b60005b838110156130fc578154818901526001820191506020810190506130dd565b838801955050505b50505092915050565b6000613119828461308a565b915081905092915050565b600082905092915050565b60006020601f8301049050919050565b600082821b905092915050565b60006008830261317c7fffffffffffffffffffffffffffffffffffffffffffffffffffffffffffffffff8261313f565b613186868361313f565b95508019841693508086168417925050509392505050565b6000819050919050565b60006131c36131be6131b984612494565b61319e565b612494565b9050919050565b6000819050919050565b6131dd836131a8565b6131f16131e9826131ca565b84845461314c565b825550505050565b600090565b6132066131f9565b6132118184846131d4565b505050565b5b818110156132355761322a6000826131fe565b600181019050613217565b5050565b601f82111561327a5761324b81613075565b6132548461312f565b81016020851015613263578190505b61327761326f8561312f565b830182613216565b50505b505050565b600082821c905092915050565b600061329d6000198460080261327f565b1980831691505092915050565b60006132b6838361328c565b9150826002028217905092915050565b6132d08383613124565b67ffffffffffffffff8111156132e9576132e8612918565b5b6132f38254612dbf565b6132fe828285613239565b6000601f83116001811461332d576000841561331b578287013590505b61332585826132aa565b86555061338d565b601f19841661333b86613075565b60005b828110156133635784890135825560018201915060208501945060208101905061333e565b86831015613380578489013561337c601f89168261328c565b8355505b6001600288020188555050505b50505050505050565b600081546133a381612dbf565b6133ad81866127be565b945060018216600081146133c857600181146133de57613411565b60ff198316865281151560200286019350613411565b6133e785613075565b60005b83811015613409578154818901526001820191506020810190506133ea565b808801955050505b50505092915050565b600060408201905081810360008301526134348185613396565b905081810360208301526134488184613396565b90509392505050565b7f52656769737472793a204e6f7420617574686f72697a65640000000000000000600082015250565b60006134876018836127be565b915061349282613451565b602082019050919050565b600060208201905081810360008301526134b68161347a565b9050919050565b7f52656769737472793a20416c7265616479206465616374697661746564000000600082015250565b60006134f3601d836127be565b91506134fe826134bd565b602082019050919050565b60006020820190508181036000830152613522816134e6565b9050919050565b7f52656769737472793a20526567697374726174696f6e20636c6f736564000000600082015250565b600061355f601d836127be565b915061356a82613529565b602082019050919050565b6000602082019050818103600083015261358e81613552565b9050919050565b7f52656769737472793a20496e76616c69642072656c6179206164647265737300600082015250565b60006135cb601f836127be565b91506135d682613595565b602082019050919050565b600060208201905081810360008301526135fa816135be565b9050919050565b7f52656769737472793a2041646472657373206d757374206265206120636f6e7460008201527f7261637400000000000000000000000000000000000000000000000000000000602082015250565b600061365d6024836127be565b915061366882613601565b604082019050919050565b6000602082019050818103600083015261368c81613650565b9050919050565b7f52656769737472793a2055524c2063616e6e6f7420626520656d707479000000600082015250565b60006136c9601d836127be565b91506136d482613693565b602082019050919050565b600060208201905081810360008301526136f8816136bc565b9050919050565b7f52656769737472793a2052656c617920616c726561647920726567697374657260008201527f6564000000000000000000000000000000000000000000000000000000000000602082015250565b600061375b6022836127be565b9150613766826136ff565b604082019050919050565b6000602082019050818103600083015261378a8161374e565b9050919050565b600061379d83856127be565b93506137aa8385846129c4565b6137b3836127f9565b840190509392505050565b600060208201905081810360008301526137d9818486613791565b90509392505050565b7f52656769737472793a20416c7265616479206163746976650000000000000000600082015250565b60006138186018836127be565b9150613823826137e2565b602082019050919050565b600060208201905081810360008301526138478161380b565b905091905056fea264697066735822122079ba42f1c46db6680e04a1f2c4c4f58cf864452e2977ed1d873ee711241ee55764736f6c634300081c0033",
  "linkReferences": {},
  "deployedLinkReferences": {}
}