{
  "_format": "hh-sol-artifact-1",
  "contractName": "Relay",
  "sourceName": "contracts/relay/Relay.sol",
  "abi": [
    {
      "inputs": [
        {
          "internalType": "address",
          "name": "_initialOwner",
          "type": "address"
        },
        {
          "internalType": "uint256",
          "name": "_initialPriceWei",
          "type": "uint256"
        },
        {
          "internalType": "uint256",
          "name": "_initialDaysPerMonth",
          "type": "uint256"
        },
        {
          "internalType": "string",
          "name": "_url",
          "type": "string"
        }
      ],
      "stateMutability": "nonpayable",
      "type": "constructor"
    },
    {
      "inputs": [],
      "name": "FailedCall",
      "type": "error"
    },
    {
      "inputs": [
        {
          "internalType": "uint256",
          "name": "balance",
          "type": "uint256"
        },
        {
          "internalType": "uint256",
          "name": "needed",
          "type": "uint256"
        }
      ],
      "name": "InsufficientBalance",
      "type": "error"
    },
    {
      "inputs": [
        {
          "internalType": "address",
          "name": "owner",
          "type": "address"
        }
      ],
      "name": "OwnableInvalidOwner",
      "type": "error"
    },
    {
      "inputs": [
        {
          "internalType": "address",
          "name": "account",
          "type": "address"
        }
      ],
      "name": "OwnableUnauthorizedAccount",
      "type": "error"
    },
    {
      "anonymous": false,
      "inputs": [
        {
          "indexed": false,
          "internalType": "uint256",
          "name": "oldDays",
          "type": "uint256"
        },
        {
          "indexed": false,
          "internalType": "uint256",
          "name": "newDays",
          "type": "uint256"
        }
      ],
      "name": "DaysPerMonthChanged",
      "type": "event"
    },
    {
      "anonymous": false,
      "inputs": [
        {
          "indexed": true,
          "internalType": "address",
          "name": "owner",
          "type": "address"
        },
        {
          "indexed": false,
          "internalType": "uint256",
          "name": "withdrawnAmount",
          "type": "uint256"
        }
      ],
      "name": "Decommissioned",
      "type": "event"
    },
    {
      "anonymous": false,
      "inputs": [
        {
          "indexed": true,
          "internalType": "address",
          "name": "entryPointAddress",
          "type": "address"
        }
      ],
      "name": "EntryPointSet",
      "type": "event"
    },
    {
      "anonymous": false,
      "inputs": [
        {
          "indexed": true,
          "internalType": "address",
          "name": "to",
          "type": "address"
        },
        {
          "indexed": false,
          "internalType": "uint256",
          "name": "value",
          "type": "uint256"
        },
        {
          "indexed": false,
          "internalType": "bytes",
          "name": "data",
          "type": "bytes"
        },
        {
          "indexed": false,
          "internalType": "bool",
          "name": "success",
          "type": "bool"
        }
      ],
      "name": "GenericTransactionSent",
      "type": "event"
    },
    {
      "anonymous": false,
      "inputs": [
        {
          "indexed": false,
          "internalType": "enum Relay.OperatingMode",
          "name": "newMode",
          "type": "uint8"
        }
      ],
      "name": "OperatingModeChanged",
      "type": "event"
    },
    {
      "anonymous": false,
      "inputs": [
        {
          "indexed": true,
          "internalType": "address",
          "name": "previousOwner",
          "type": "address"
        },
        {
          "indexed": true,
          "internalType": "address",
          "name": "newOwner",
          "type": "address"
        }
      ],
      "name": "OwnershipTransferred",
      "type": "event"
    },
    {
      "anonymous": false,
      "inputs": [
        {
          "indexed": true,
          "internalType": "address",
          "name": "owner",
          "type": "address"
        },
        {
          "indexed": false,
          "internalType": "uint256",
          "name": "amount",
          "type": "uint256"
        }
      ],
      "name": "PayoutToOwner",
      "type": "event"
    },
    {
      "anonymous": false,
      "inputs": [
        {
          "indexed": false,
          "internalType": "uint256",
          "name": "oldPrice",
          "type": "uint256"
        },
        {
          "indexed": false,
          "internalType": "uint256",
          "name": "newPrice",
          "type": "uint256"
        }
      ],
      "name": "PriceChanged",
      "type": "event"
    },
    {
      "anonymous": false,
      "inputs": [
        {
          "indexed": true,
          "internalType": "address",
          "name": "user",
          "type": "address"
        },
        {
          "indexed": false,
          "internalType": "bytes",
          "name": "pubKey",
          "type": "bytes"
        }
      ],
      "name": "PubKeyRemoved",
      "type": "event"
    },
    {
      "anonymous": false,
      "inputs": [
        {
          "indexed": true,
          "internalType": "address",
          "name": "user",
          "type": "address"
        },
        {
          "indexed": false,
          "internalType": "bytes",
          "name": "pubKey",
          "type": "bytes"
        },
        {
          "indexed": false,
          "internalType": "bytes",
          "name": "oldPubKey",
          "type": "bytes"
        }
      ],
      "name": "PubKeySet",
      "type": "event"
    },
    {
      "anonymous": false,
      "inputs": [
        {
          "indexed": true,
          "internalType": "address",
          "name": "registryAddress",
          "type": "address"
        }
      ],
      "name": "RegisteredInRegistry",
      "type": "event"
    },
    {
      "anonymous": false,
      "inputs": [
        {
          "indexed": true,
          "internalType": "address",
          "name": "registryAddress",
          "type": "address"
        }
      ],
      "name": "RegistrySet",
      "type": "event"
    },
    {
      "anonymous": false,
      "inputs": [
        {
          "indexed": false,
          "internalType": "string",
          "name": "oldUrl",
          "type": "string"
        },
        {
          "indexed": false,
          "internalType": "string",
          "name": "newUrl",
          "type": "string"
        }
      ],
      "name": "RelayUrlUpdated",
      "type": "event"
    },
    {
      "anonymous": false,
      "inputs": [
        {
          "indexed": true,
          "internalType": "address",
          "name": "user",
          "type": "address"
        },
        {
          "indexed": false,
          "internalType": "bytes",
          "name": "pubKey",
          "type": "bytes"
        },
        {
          "indexed": false,
          "internalType": "uint256",
          "name": "months",
          "type": "uint256"
        },
        {
          "indexed": false,
          "internalType": "uint256",
          "name": "newExpiryTimestamp",
          "type": "uint256"
        }
      ],
      "name": "Subscribed",
      "type": "event"
    },
    {
      "inputs": [],
      "name": "DAY",
      "outputs": [
        {
          "internalType": "uint256",
          "name": "",
          "type": "uint256"
        }
      ],
      "stateMutability": "view",
      "type": "function"
    },
    {
      "inputs": [],
      "name": "daysPerMonth",
      "outputs": [
        {
          "internalType": "uint256",
          "name": "",
          "type": "uint256"
        }
      ],
      "stateMutability": "view",
      "type": "function"
    },
    {
      "inputs": [],
      "name": "decommissionAndWithdrawAllFunds",
      "outputs": [],
      "stateMutability": "nonpayable",
      "type": "function"
    },
    {
      "inputs": [],
      "name": "entryPointAddress",
      "outputs": [
        {
          "internalType": "address",
          "name": "",
          "type": "address"
        }
      ],
      "stateMutability": "view",
      "type": "function"
    },
    {
      "inputs": [
        {
          "internalType": "address",
          "name": "_to",
          "type": "address"
        },
        {
          "internalType": "uint256",
          "name": "_value",
          "type": "uint256"
        },
        {
          "internalType": "bytes",
          "name": "_data",
          "type": "bytes"
        }
      ],
      "name": "execute",
      "outputs": [
        {
          "internalType": "bool",
          "name": "success",
          "type": "bool"
        },
        {
          "internalType": "bytes",
          "name": "result",
          "type": "bytes"
        }
      ],
      "stateMutability": "nonpayable",
      "type": "function"
    },
    {
      "inputs": [],
      "name": "getRelayMode",
      "outputs": [
        {
          "internalType": "enum Relay.OperatingMode",
          "name": "_mode",
          "type": "uint8"
        },
        {
          "internalType": "address",
          "name": "_registry",
          "type": "address"
        },
        {
          "internalType": "address",
          "name": "_entryPoint",
          "type": "address"
        },
        {
          "internalType": "bool",
          "name": "_isRegistered",
          "type": "bool"
        }
      ],
      "stateMutability": "view",
      "type": "function"
    },
    {
      "inputs": [],
      "name": "getRelayOperationalConfig",
      "outputs": [
        {
          "internalType": "string",
          "name": "_url",
          "type": "string"
        },
        {
          "internalType": "uint256",
          "name": "_price",
          "type": "uint256"
        },
        {
          "internalType": "uint256",
          "name": "_daysInMonth",
          "type": "uint256"
        }
      ],
      "stateMutability": "view",
      "type": "function"
    },
    {
      "inputs": [
        {
          "internalType": "address",
          "name": "_user",
          "type": "address"
        }
      ],
      "name": "getUserSubscriptionInfo",
      "outputs": [
        {
          "internalType": "uint256",
          "name": "expires",
          "type": "uint256"
        },
        {
          "internalType": "bytes",
          "name": "pubKey",
          "type": "bytes"
        }
      ],
      "stateMutability": "view",
      "type": "function"
    },
    {
      "inputs": [
        {
          "internalType": "bytes",
          "name": "_pubKey",
          "type": "bytes"
        }
      ],
      "name": "isAuthorizedByPubKey",
      "outputs": [
        {
          "internalType": "bool",
          "name": "",
          "type": "bool"
        }
      ],
      "stateMutability": "view",
      "type": "function"
    },
    {
      "inputs": [],
      "name": "isRegisteredInRegistry",
      "outputs": [
        {
          "internalType": "bool",
          "name": "",
          "type": "bool"
        }
      ],
      "stateMutability": "view",
      "type": "function"
    },
    {
      "inputs": [
        {
          "internalType": "bytes",
          "name": "_pubKey",
          "type": "bytes"
        }
      ],
      "name": "isSubscribed",
      "outputs": [
        {
          "internalType": "bool",
          "name": "",
          "type": "bool"
        }
      ],
      "stateMutability": "view",
      "type": "function"
    },
    {
      "inputs": [
        {
          "internalType": "address",
          "name": "_user",
          "type": "address"
        }
      ],
      "name": "isSubscriptionActive",
      "outputs": [
        {
          "internalType": "bool",
          "name": "",
          "type": "bool"
        }
      ],
      "stateMutability": "view",
      "type": "function"
    },
    {
      "inputs": [],
      "name": "mode",
      "outputs": [
        {
          "internalType": "enum Relay.OperatingMode",
          "name": "",
          "type": "uint8"
        }
      ],
      "stateMutability": "view",
      "type": "function"
    },
    {
      "inputs": [],
      "name": "owner",
      "outputs": [
        {
          "internalType": "address",
          "name": "",
          "type": "address"
        }
      ],
      "stateMutability": "view",
      "type": "function"
    },
    {
      "inputs": [],
      "name": "pricePerMonth",
      "outputs": [
        {
          "internalType": "uint256",
          "name": "",
          "type": "uint256"
        }
      ],
      "stateMutability": "view",
      "type": "function"
    },
    {
      "inputs": [
        {
          "internalType": "string",
          "name": "_metadata",
          "type": "string"
        }
      ],
      "name": "registerInRegistry",
      "outputs": [],
      "stateMutability": "nonpayable",
      "type": "function"
    },
    {
      "inputs": [],
      "name": "registryAddress",
      "outputs": [
        {
          "internalType": "address",
          "name": "",
          "type": "address"
        }
      ],
      "stateMutability": "view",
      "type": "function"
    },
    {
      "inputs": [],
      "name": "relayUrl",
      "outputs": [
        {
          "internalType": "string",
          "name": "",
          "type": "string"
        }
      ],
      "stateMutability": "view",
      "type": "function"
    },
    {
      "inputs": [],
      "name": "renounceOwnership",
      "outputs": [],
      "stateMutability": "nonpayable",
      "type": "function"
    },
    {
      "inputs": [
        {
          "internalType": "uint256",
          "name": "_days",
          "type": "uint256"
        }
      ],
      "name": "setDaysPerMonth",
      "outputs": [],
      "stateMutability": "nonpayable",
      "type": "function"
    },
    {
      "inputs": [
        {
          "internalType": "address",
          "name": "_entryPointAddress",
          "type": "address"
        },
        {
          "internalType": "bool",
          "name": "_enableProtocolMode",
          "type": "bool"
        }
      ],
      "name": "setEntryPoint",
      "outputs": [],
      "stateMutability": "nonpayable",
      "type": "function"
    },
    {
      "inputs": [
        {
          "internalType": "enum Relay.OperatingMode",
          "name": "_newMode",
          "type": "uint8"
        }
      ],
      "name": "setOperatingMode",
      "outputs": [],
      "stateMutability": "nonpayable",
      "type": "function"
    },
    {
      "inputs": [
        {
          "internalType": "uint256",
          "name": "_newPrice",
          "type": "uint256"
        }
      ],
      "name": "setPrice",
      "outputs": [],
      "stateMutability": "nonpayable",
      "type": "function"
    },
    {
      "inputs": [
        {
          "internalType": "address",
          "name": "_registryAddress",
          "type": "address"
        },
        {
          "internalType": "bool",
          "name": "_autoRegister",
          "type": "bool"
        },
        {
          "internalType": "string",
          "name": "_metadata",
          "type": "string"
        }
      ],
      "name": "setRegistry",
      "outputs": [],
      "stateMutability": "nonpayable",
      "type": "function"
    },
    {
      "inputs": [
        {
          "internalType": "uint256",
          "name": "_months",
          "type": "uint256"
        },
        {
          "internalType": "bytes",
          "name": "_pubKey",
          "type": "bytes"
        }
      ],
      "name": "subscribe",
      "outputs": [],
      "stateMutability": "payable",
      "type": "function"
    },
    {
      "inputs": [
        {
          "internalType": "address",
          "name": "newOwner",
          "type": "address"
        }
      ],
      "name": "transferOwnership",
      "outputs": [],
      "stateMutability": "nonpayable",
      "type": "function"
    },
    {
      "inputs": [
        {
          "internalType": "string",
          "name": "_newUrl",
          "type": "string"
        }
      ],
      "name": "updateRelayUrl",
      "outputs": [],
      "stateMutability": "nonpayable",
      "type": "function"
    },
    {
      "inputs": [
        {
          "internalType": "bytes",
          "name": "",
          "type": "bytes"
        }
      ],
      "name": "userAddressByPubKey",
      "outputs": [
        {
          "internalType": "address",
          "name": "",
          "type": "address"
        }
      ],
      "stateMutability": "view",
      "type": "function"
    },
    {
      "inputs": [
        {
          "internalType": "address",
          "name": "",
          "type": "address"
        }
      ],
      "name": "userInfoByAddress",
      "outputs": [
        {
          "internalType": "uint256",
          "name": "expires",
          "type": "uint256"
        },
        {
          "internalType": "bytes",
          "name": "pubKey",
          "type": "bytes"
        }
      ],
      "stateMutability": "view",
      "type": "function"
    },
    {
      "inputs": [],
      "name": "withdrawFunds",
      "outputs": [],
      "stateMutability": "nonpayable",
      "type": "function"
    },
    {
      "stateMutability": "payable",
      "type": "receive"
    }
  ],
  "bytecode": "0x60806040526000600460006101000a81548160ff0219169083600181111561002a576100296102ce565b5b021790555034801561003b57600080fd5b50604051614b36380380614b36833981810160405281019061005d9190610506565b83600073ffffffffffffffffffffffffffffffffffffffff168173ffffffffffffffffffffffffffffffffffffffff16036100d05760006040517f1e4fbdf70000000000000000000000000000000000000000000000000000000081526004016100c79190610598565b60405180910390fd5b6100df8161020a60201b60201c565b50600073ffffffffffffffffffffffffffffffffffffffff168473ffffffffffffffffffffffffffffffffffffffff160361014f576040517f08c379a000000000000000000000000000000000000000000000000000000000815260040161014690610610565b60405180910390fd5b6000815111610193576040517f08c379a000000000000000000000000000000000000000000000000000000000815260040161018a9061067c565b60405180910390fd5b6000821180156101a45750601f8211155b6101e3576040517f08c379a00000000000000000000000000000000000000000000000000000000081526004016101da906106e8565b60405180910390fd5b82600281905550816001819055508060039081610200919061091f565b50505050506109f1565b60008060009054906101000a900473ffffffffffffffffffffffffffffffffffffffff169050816000806101000a81548173ffffffffffffffffffffffffffffffffffffffff021916908373ffffffffffffffffffffffffffffffffffffffff1602179055508173ffffffffffffffffffffffffffffffffffffffff168173ffffffffffffffffffffffffffffffffffffffff167f8be0079c531659141344cd1fd0a4f28419497f9722a3daafe3b4186f6b6457e060405160405180910390a35050565b7f4e487b7100000000000000000000000000000000000000000000000000000000600052602160045260246000fd5b6000604051905090565b600080fd5b600080fd5b600073ffffffffffffffffffffffffffffffffffffffff82169050919050565b600061033c82610311565b9050919050565b61034c81610331565b811461035757600080fd5b50565b60008151905061036981610343565b92915050565b6000819050919050565b6103828161036f565b811461038d57600080fd5b50565b60008151905061039f81610379565b92915050565b600080fd5b600080fd5b6000601f19601f8301169050919050565b7f4e487b7100000000000000000000000000000000000000000000000000000000600052604160045260246000fd5b6103f8826103af565b810181811067ffffffffffffffff82111715610417576104166103c0565b5b80604052505050565b600061042a6102fd565b905061043682826103ef565b919050565b600067ffffffffffffffff821115610456576104556103c0565b5b61045f826103af565b9050602081019050919050565b60005b8381101561048a57808201518184015260208101905061046f565b60008484015250505050565b60006104a96104a48461043b565b610420565b9050828152602081018484840111156104c5576104c46103aa565b5b6104d084828561046c565b509392505050565b600082601f8301126104ed576104ec6103a5565b5b81516104fd848260208601610496565b91505092915050565b600080600080608085870312156105205761051f610307565b5b600061052e8782880161035a565b945050602061053f87828801610390565b935050604061055087828801610390565b925050606085015167ffffffffffffffff8111156105715761057061030c565b5b61057d878288016104d8565b91505092959194509250565b61059281610331565b82525050565b60006020820190506105ad6000830184610589565b92915050565b600082825260208201905092915050565b7f53523a20496e76616c6964206f776e6572000000000000000000000000000000600082015250565b60006105fa6011836105b3565b9150610605826105c4565b602082019050919050565b60006020820190508181036000830152610629816105ed565b9050919050565b7f53523a2055524c2063616e6e6f7420626520656d707479000000000000000000600082015250565b60006106666017836105b3565b915061067182610630565b602082019050919050565b6000602082019050818103600083015261069581610659565b9050919050565b7f53523a20496e76616c6964206461797320706572206d6f6e7468000000000000600082015250565b60006106d2601a836105b3565b91506106dd8261069c565b602082019050919050565b60006020820190508181036000830152610701816106c5565b9050919050565b600081519050919050565b7f4e487b7100000000000000000000000000000000000000000000000000000000600052602260045260246000fd5b6000600282049050600182168061075a57607f821691505b60208210810361076d5761076c610713565b5b50919050565b60008190508160005260206000209050919050565b60006020601f8301049050919050565b600082821b905092915050565b6000600883026107d57fffffffffffffffffffffffffffffffffffffffffffffffffffffffffffffffff82610798565b6107df8683610798565b95508019841693508086168417925050509392505050565b6000819050919050565b600061081c6108176108128461036f565b6107f7565b61036f565b9050919050565b6000819050919050565b61083683610801565b61084a61084282610823565b8484546107a5565b825550505050565b600090565b61085f610852565b61086a81848461082d565b505050565b5b8181101561088e57610883600082610857565b600181019050610870565b5050565b601f8211156108d3576108a481610773565b6108ad84610788565b810160208510156108bc578190505b6108d06108c885610788565b83018261086f565b50505b505050565b600082821c905092915050565b60006108f6600019846008026108d8565b1980831691505092915050565b600061090f83836108e5565b9150826002028217905092915050565b61092882610708565b67ffffffffffffffff811115610941576109406103c0565b5b61094b8254610742565b610956828285610892565b600060209050601f8311600181146109895760008415610977578287015190505b6109818582610903565b8655506109e9565b601f19841661099786610773565b60005b828110156109bf5784890151825560018201915060208501945060208101905061099a565b868310156109dc57848901516109d8601f8916826108e5565b8355505b6001600288020188555050505b505050505050565b61413680610a006000396000f3fe6080604052600436106101d15760003560e01c806388745e79116100f7578063bc3fda1511610095578063d0e110ca11610064578063d0e110ca1461066c578063d672777314610695578063ed9aab51146106be578063f2fde38b146106e9576101d8565b8063bc3fda15146105ac578063c2ce9a20146105da578063ca10d15e14610618578063cab535d414610641576101d8565b806391f411da116100d157806391f411da146104ea578063b0c2400c14610515578063b2fde4ec14610552578063b61d27f61461056e576101d8565b806388745e79146104595780638da5cb5b1461049657806391b7f5ed146104c1576101d8565b806327987fe11161016f5780634ef08f941161013e5780634ef08f94146103af57806361e70054146103d8578063688e701a14610415578063715018a614610442576101d8565b806327987fe1146102f257806327cfe85614610330578063295a52121461035b5780633e93729d14610386576101d8565b8063165f6efd116101ab578063165f6efd146102705780631816c89e1461029b5780631ad9ffc0146102b257806324600fc3146102db576101d8565b806306dc245c146101dd578063095e8abb146102085780631440132914610233576101d8565b366101d857005b600080fd5b3480156101e957600080fd5b506101f2610712565b6040516101ff91906126c1565b60405180910390f35b34801561021457600080fd5b5061021d610738565b60405161022a91906126f7565b60405180910390f35b34801561023f57600080fd5b5061025a60048036038101906102559190612752565b61074b565b60405161026791906126f7565b60405180910390f35b34801561027c57600080fd5b50610285610799565b604051610292919061280f565b60405180910390f35b3480156102a757600080fd5b506102b0610827565b005b3480156102be57600080fd5b506102d960048036038101906102d49190612856565b6108e8565b005b3480156102e757600080fd5b506102f0610a6d565b005b3480156102fe57600080fd5b5061031960048036038101906103149190612752565b610b6b565b6040516103279291906128f1565b60405180910390f35b34801561033c57600080fd5b50610345610c89565b6040516103529190612921565b60405180910390f35b34801561036757600080fd5b50610370610c90565b60405161037d91906129b3565b60405180910390f35b34801561039257600080fd5b506103ad60048036038101906103a891906129fa565b610ca3565b005b3480156103bb57600080fd5b506103d660048036038101906103d19190612a8c565b610d8b565b005b3480156103e457600080fd5b506103ff60048036038101906103fa9190612b2f565b610eff565b60405161040c91906126f7565b60405180910390f35b34801561042157600080fd5b5061042a610f85565b60405161043993929190612b7c565b60405180910390f35b34801561044e57600080fd5b50610457611029565b005b34801561046557600080fd5b50610480600480360381019061047b9190612b2f565b61103d565b60405161048d91906126f7565b60405180910390f35b3480156104a257600080fd5b506104ab611124565b6040516104b891906126c1565b60405180910390f35b3480156104cd57600080fd5b506104e860048036038101906104e391906129fa565b61114d565b005b3480156104f657600080fd5b506104ff6111e5565b60405161050c9190612921565b60405180910390f35b34801561052157600080fd5b5061053c60048036038101906105379190612cea565b6111eb565b60405161054991906126c1565b60405180910390f35b61056c60048036038101906105679190612d33565b611234565b005b34801561057a57600080fd5b5061059560048036038101906105909190612d93565b61148a565b6040516105a3929190612e07565b60405180910390f35b3480156105b857600080fd5b506105c1611618565b6040516105d19493929190612e37565b60405180910390f35b3480156105e657600080fd5b5061060160048036038101906105fc9190612752565b611692565b60405161060f9291906128f1565b60405180910390f35b34801561062457600080fd5b5061063f600480360381019061063a9190612ea8565b61173e565b005b34801561064d57600080fd5b50610656611938565b6040516106639190612921565b60405180910390f35b34801561067857600080fd5b50610693600480360381019061068e9190612a8c565b61193e565b005b3480156106a157600080fd5b506106bc60048036038101906106b79190612ee8565b611b96565b005b3480156106ca57600080fd5b506106d3611ca8565b6040516106e091906126c1565b60405180910390f35b3480156106f557600080fd5b50610710600480360381019061070b9190612752565b611cce565b005b600560009054906101000a900473ffffffffffffffffffffffffffffffffffffffff1681565b600560149054906101000a900460ff1681565b600042600660008473ffffffffffffffffffffffffffffffffffffffff1673ffffffffffffffffffffffffffffffffffffffff16815260200190815260200160002060000154119050919050565b600380546107a690612f8b565b80601f01602080910402602001604051908101604052809291908181526020018280546107d290612f8b565b801561081f5780601f106107f45761010080835404028352916020019161081f565b820191906000526020600020905b81548152906001019060200180831161080257829003601f168201915b505050505081565b61082f611d54565b600060028190555060004790506000811161087f576040517f08c379a000000000000000000000000000000000000000000000000000000000815260040161087690613008565b60405180910390fd5b610887611124565b73ffffffffffffffffffffffffffffffffffffffff167f854ffb63eda02823b0a3a6369ad4c342069ea69c7234025c83e60f2b8771801b826040516108cc9190612921565b60405180910390a26108e56108df611124565b82611ddb565b50565b6108f0611d54565b6001808111156109035761090261293c565b5b8160018111156109165761091561293c565b5b03610a0957600073ffffffffffffffffffffffffffffffffffffffff16600460019054906101000a900473ffffffffffffffffffffffffffffffffffffffff1673ffffffffffffffffffffffffffffffffffffffff16141580156109c95750600073ffffffffffffffffffffffffffffffffffffffff16600560009054906101000a900473ffffffffffffffffffffffffffffffffffffffff1673ffffffffffffffffffffffffffffffffffffffff1614155b610a08576040517f08c379a00000000000000000000000000000000000000000000000000000000081526004016109ff9061309a565b60405180910390fd5b5b80600460006101000a81548160ff02191690836001811115610a2e57610a2d61293c565b5b02179055507f4016a1377b8961c4aa6f3a2d3de830a685ddbfe0f228ffc0208eb96304c4cf1a81604051610a6291906129b3565b60405180910390a150565b610a75611d54565b600060025411610aba576040517f08c379a0000000000000000000000000000000000000000000000000000000008152600401610ab190613106565b60405180910390fd5b600047905060008111610b02576040517f08c379a0000000000000000000000000000000000000000000000000000000008152600401610af990613198565b60405180910390fd5b610b0a611124565b73ffffffffffffffffffffffffffffffffffffffff167fa3d64084817ccafda545467fee6b9ecdb4e89f0faed4be0a760c07f3496ec17482604051610b4f9190612921565b60405180910390a2610b68610b62611124565b82611ddb565b50565b60006060600660008473ffffffffffffffffffffffffffffffffffffffff1673ffffffffffffffffffffffffffffffffffffffff16815260200190815260200160002060000154600660008573ffffffffffffffffffffffffffffffffffffffff1673ffffffffffffffffffffffffffffffffffffffff168152602001908152602001600020600101808054610c0090612f8b565b80601f0160208091040260200160405190810160405280929190818152602001828054610c2c90612f8b565b8015610c795780601f10610c4e57610100808354040283529160200191610c79565b820191906000526020600020905b815481529060010190602001808311610c5c57829003601f168201915b5050505050905091509150915091565b6201518081565b600460009054906101000a900460ff1681565b610cab611d54565b600060025411610cf0576040517f08c379a0000000000000000000000000000000000000000000000000000000008152600401610ce790613106565b60405180910390fd5b600081118015610d015750601f8111155b610d40576040517f08c379a0000000000000000000000000000000000000000000000000000000008152600401610d3790613204565b60405180910390fd5b60006001549050816001819055507f0db287c6e22c92d885d7fe021abcb3edbc491e34578c2eb9d1f6d9ac158959b58183604051610d7f929190613224565b60405180910390a15050565b610d93611d54565b600060025411610dd8576040517f08c379a0000000000000000000000000000000000000000000000000000000008152600401610dcf90613106565b60405180910390fd5b60008282905011610e1e576040517f08c379a0000000000000000000000000000000000000000000000000000000008152600401610e1590613299565b60405180910390fd5b600060038054610e2d90612f8b565b80601f0160208091040260200160405190810160405280929190818152602001828054610e5990612f8b565b8015610ea65780601f10610e7b57610100808354040283529160200191610ea6565b820191906000526020600020905b815481529060010190602001808311610e8957829003601f168201915b50505050509050828260039182610ebe929190613470565b507fa0ee551142858b35648d88e7c560b9fef60ae3723fe7e27a0260e6897050ec6f818484604051610ef29392919061356d565b60405180910390a1505050565b60003073ffffffffffffffffffffffffffffffffffffffff166388745e7984846040518363ffffffff1660e01b8152600401610f3c9291906135d3565b602060405180830381865afa158015610f59573d6000803e3d6000fd5b505050506040513d601f19601f82011682018060405250810190610f7d919061360c565b905092915050565b60606000806003600254600154828054610f9e90612f8b565b80601f0160208091040260200160405190810160405280929190818152602001828054610fca90612f8b565b80156110175780601f10610fec57610100808354040283529160200191611017565b820191906000526020600020905b815481529060010190602001808311610ffa57829003601f168201915b50505050509250925092509250909192565b611031611d54565b61103b6000611ea5565b565b6000808383905003611052576000905061111e565b600060078484604051611066929190613669565b908152602001604051809103902060009054906101000a900473ffffffffffffffffffffffffffffffffffffffff169050600073ffffffffffffffffffffffffffffffffffffffff168173ffffffffffffffffffffffffffffffffffffffff16036110d557600091505061111e565b42600660008373ffffffffffffffffffffffffffffffffffffffff1673ffffffffffffffffffffffffffffffffffffffff16815260200190815260200160002060000154119150505b92915050565b60008060009054906101000a900473ffffffffffffffffffffffffffffffffffffffff16905090565b611155611d54565b60006002541161119a576040517f08c379a000000000000000000000000000000000000000000000000000000000815260040161119190613106565b60405180910390fd5b60006002549050816002819055507f8aa4fa52648a6d15edce8a179c792c86f3719d0cc3c572cf90f91948f0f2cb6881836040516111d9929190613224565b60405180910390a15050565b60025481565b6007818051602081018201805184825260208301602085012081835280955050505050506000915054906101000a900473ffffffffffffffffffffffffffffffffffffffff1681565b600060018111156112485761124761293c565b5b600460009054906101000a900460ff16600181111561126a5761126961293c565b5b14806112c35750600560009054906101000a900473ffffffffffffffffffffffffffffffffffffffff1673ffffffffffffffffffffffffffffffffffffffff163373ffffffffffffffffffffffffffffffffffffffff16145b611302576040517f08c379a00000000000000000000000000000000000000000000000000000000081526004016112f9906136f4565b60405180910390fd5b60008311611345576040517f08c379a000000000000000000000000000000000000000000000000000000000815260040161133c90613760565b60405180910390fd5b60006002541161138a576040517f08c379a0000000000000000000000000000000000000000000000000000000008152600401611381906137f2565b60405180910390fd5b6000600181111561139e5761139d61293c565b5b600460009054906101000a900460ff1660018111156113c0576113bf61293c565b5b0361141557600254836113d39190613841565b3414611414576040517f08c379a000000000000000000000000000000000000000000000000000000000815260040161140b906138cf565b60405180910390fd5b5b60008282905011156114795760208282905010158015611439575060808282905011155b611478576040517f08c379a000000000000000000000000000000000000000000000000000000000815260040161146f9061393b565b60405180910390fd5b5b61148533848484611f69565b505050565b60006060611496611d54565b600073ffffffffffffffffffffffffffffffffffffffff168673ffffffffffffffffffffffffffffffffffffffff1603611505576040517f08c379a00000000000000000000000000000000000000000000000000000000081526004016114fc906139a7565b60405180910390fd5b84471015611548576040517f08c379a000000000000000000000000000000000000000000000000000000000815260040161153f90613a13565b60405180910390fd5b8573ffffffffffffffffffffffffffffffffffffffff16858585604051611570929190613669565b60006040518083038185875af1925050503d80600081146115ad576040519150601f19603f3d011682016040523d82523d6000602084013e6115b2565b606091505b5080925081935050508573ffffffffffffffffffffffffffffffffffffffff167f4b81268ebc0a6fe9379e181275d4d2c7719958ab8250b5af1bf7690b980e4ee3868686866040516116079493929190613a33565b60405180910390a294509492505050565b600080600080600460009054906101000a900460ff16600460019054906101000a900473ffffffffffffffffffffffffffffffffffffffff16600560009054906101000a900473ffffffffffffffffffffffffffffffffffffffff16600560149054906101000a900460ff16935093509350935090919293565b60066020528060005260406000206000915090508060000154908060010180546116bb90612f8b565b80601f01602080910402602001604051908101604052809291908181526020018280546116e790612f8b565b80156117345780601f1061170957610100808354040283529160200191611734565b820191906000526020600020905b81548152906001019060200180831161171757829003601f168201915b5050505050905082565b611746611d54565b600073ffffffffffffffffffffffffffffffffffffffff168273ffffffffffffffffffffffffffffffffffffffff16036117b5576040517f08c379a00000000000000000000000000000000000000000000000000000000081526004016117ac90613abf565b60405180910390fd5b81600560006101000a81548173ffffffffffffffffffffffffffffffffffffffff021916908373ffffffffffffffffffffffffffffffffffffffff1602179055508173ffffffffffffffffffffffffffffffffffffffff167f41e2b4fb9d855f284604e7592c9eeb72789d1f68bcc53c34f036de5dbb59dcd860405160405180910390a2801561193457600073ffffffffffffffffffffffffffffffffffffffff16600460019054906101000a900473ffffffffffffffffffffffffffffffffffffffff1673ffffffffffffffffffffffffffffffffffffffff16036118d0576040517f08c379a00000000000000000000000000000000000000000000000000000000081526004016118c790613b51565b60405180910390fd5b6001600460006101000a81548160ff021916908360018111156118f6576118f561293c565b5b02179055507f4016a1377b8961c4aa6f3a2d3de830a685ddbfe0f228ffc0208eb96304c4cf1a600160405161192b91906129b3565b60405180910390a15b5050565b60015481565b611946611d54565b600073ffffffffffffffffffffffffffffffffffffffff16600460019054906101000a900473ffffffffffffffffffffffffffffffffffffffff1673ffffffffffffffffffffffffffffffffffffffff16036119d7576040517f08c379a00000000000000000000000000000000000000000000000000000000081526004016119ce90613bbd565b60405180910390fd5b6000600460019054906101000a900473ffffffffffffffffffffffffffffffffffffffff1673ffffffffffffffffffffffffffffffffffffffff16634653e0b6306040518263ffffffff1660e01b8152600401611a3491906126c1565b602060405180830381865afa158015611a51573d6000803e3d6000fd5b505050506040513d601f19601f82011682018060405250810190611a75919061360c565b905080611b9157600460019054906101000a900473ffffffffffffffffffffffffffffffffffffffff1673ffffffffffffffffffffffffffffffffffffffff1663cbcca31530600386866040518563ffffffff1660e01b8152600401611ade9493929190613c61565b600060405180830381600087803b158015611af857600080fd5b505af1158015611b0c573d6000803e3d6000fd5b505050506001600560146101000a81548160ff021916908315150217905550600460019054906101000a900473ffffffffffffffffffffffffffffffffffffffff1673ffffffffffffffffffffffffffffffffffffffff167f7f0a84c095e437eed31667d27ff687b5b96ad6ad0e2fa78b299100c2d122ab1360405160405180910390a25b505050565b611b9e611d54565b600073ffffffffffffffffffffffffffffffffffffffff168473ffffffffffffffffffffffffffffffffffffffff1603611c0d576040517f08c379a0000000000000000000000000000000000000000000000000000000008152600401611c0490613cf4565b60405180910390fd5b83600460016101000a81548173ffffffffffffffffffffffffffffffffffffffff021916908373ffffffffffffffffffffffffffffffffffffffff1602179055508373ffffffffffffffffffffffffffffffffffffffff167f27fe5f0c1c3b1ed427cc63d0f05759ffdecf9aec9e18d31ef366fc8a6cb5dc3b60405160405180910390a28215611ca257611ca1828261193e565b5b50505050565b600460019054906101000a900473ffffffffffffffffffffffffffffffffffffffff1681565b611cd6611d54565b600073ffffffffffffffffffffffffffffffffffffffff168173ffffffffffffffffffffffffffffffffffffffff1603611d485760006040517f1e4fbdf7000000000000000000000000000000000000000000000000000000008152600401611d3f91906126c1565b60405180910390fd5b611d5181611ea5565b50565b611d5c612633565b73ffffffffffffffffffffffffffffffffffffffff16611d7a611124565b73ffffffffffffffffffffffffffffffffffffffff1614611dd957611d9d612633565b6040517f118cdaa7000000000000000000000000000000000000000000000000000000008152600401611dd091906126c1565b60405180910390fd5b565b80471015611e225747816040517fcf479181000000000000000000000000000000000000000000000000000000008152600401611e19929190613224565b60405180910390fd5b6000808373ffffffffffffffffffffffffffffffffffffffff1683604051611e4990613d3a565b60006040518083038185875af1925050503d8060008114611e86576040519150601f19603f3d011682016040523d82523d6000602084013e611e8b565b606091505b509150915081611e9f57611e9e8161263b565b5b50505050565b60008060009054906101000a900473ffffffffffffffffffffffffffffffffffffffff169050816000806101000a81548173ffffffffffffffffffffffffffffffffffffffff021916908373ffffffffffffffffffffffffffffffffffffffff1602179055508173ffffffffffffffffffffffffffffffffffffffff168173ffffffffffffffffffffffffffffffffffffffff167f8be0079c531659141344cd1fd0a4f28419497f9722a3daafe3b4186f6b6457e060405160405180910390a35050565b6000600660008673ffffffffffffffffffffffffffffffffffffffff1673ffffffffffffffffffffffffffffffffffffffff1681526020019081526020016000209050600081600001544211611fc3578160000154611fc5565b425b905060006201518060015487611fdb9190613841565b611fe59190613841565b82611ff09190613d4f565b90508083600001819055508673ffffffffffffffffffffffffffffffffffffffff167f3d54063f26ce16a2aa19a980bdfae9a5fe3adf34f90450733ec0e3c4cd7beeeb868689856040516120479493929190613d83565b60405180910390a26000858590501461246757600083600101805461206b90612f8b565b80601f016020809104026020016040519081016040528092919081815260200182805461209790612f8b565b80156120e45780601f106120b9576101008083540402835291602001916120e4565b820191906000526020600020905b8154815290600101906020018083116120c757829003601f168201915b5050505050905085856040516120fb929190613669565b6040518091039020818051906020012014612461576000815111801561218a57508773ffffffffffffffffffffffffffffffffffffffff166007826040516121439190613df4565b908152602001604051809103902060009054906101000a900473ffffffffffffffffffffffffffffffffffffffff1673ffffffffffffffffffffffffffffffffffffffff16145b1561221f5760078160405161219f9190613df4565b908152602001604051809103902060006101000a81549073ffffffffffffffffffffffffffffffffffffffff02191690558773ffffffffffffffffffffffffffffffffffffffff167ffdde9b7c2044d9c3f0e72c711bcd539e8f7dacb15bbb33ad830059d5adcd1a73826040516122169190613e0b565b60405180910390a25b600060078787604051612233929190613669565b908152602001604051809103902060009054906101000a900473ffffffffffffffffffffffffffffffffffffffff169050600073ffffffffffffffffffffffffffffffffffffffff168173ffffffffffffffffffffffffffffffffffffffff16141580156122cd57508873ffffffffffffffffffffffffffffffffffffffff168173ffffffffffffffffffffffffffffffffffffffff1614155b1561239a5742600660008373ffffffffffffffffffffffffffffffffffffffff1673ffffffffffffffffffffffffffffffffffffffff1681526020019081526020016000206000015410612356576040517f08c379a000000000000000000000000000000000000000000000000000000000815260040161234d90613e9f565b60405180910390fd5b60078787604051612368929190613669565b908152602001604051809103902060006101000a81549073ffffffffffffffffffffffffffffffffffffffff02191690555b86868660010191826123ad929190613f25565b5088600788886040516123c1929190613669565b908152602001604051809103902060006101000a81548173ffffffffffffffffffffffffffffffffffffffff021916908373ffffffffffffffffffffffffffffffffffffffff1602179055508873ffffffffffffffffffffffffffffffffffffffff167f29d2ea897a4390bfc2c818628db39d9e7f3bbccc0fd432b0e9c3eb4bdf9c03ae88888560405161245793929190613ff5565b60405180910390a2505b5061262a565b600083600101805461247890612f8b565b80601f01602080910402602001604051908101604052809291908181526020018280546124a490612f8b565b80156124f15780601f106124c6576101008083540402835291602001916124f1565b820191906000526020600020905b8154815290600101906020018083116124d457829003601f168201915b505050505090506000815111801561257257508773ffffffffffffffffffffffffffffffffffffffff1660078260405161252b9190613df4565b908152602001604051809103902060009054906101000a900473ffffffffffffffffffffffffffffffffffffffff1673ffffffffffffffffffffffffffffffffffffffff16145b15612628576007816040516125879190613df4565b908152602001604051809103902060006101000a81549073ffffffffffffffffffffffffffffffffffffffff0219169055604051806020016040528060008152508460010190816125d8919061402e565b508773ffffffffffffffffffffffffffffffffffffffff167ffdde9b7c2044d9c3f0e72c711bcd539e8f7dacb15bbb33ad830059d5adcd1a738260405161261f9190613e0b565b60405180910390a25b505b50505050505050565b600033905090565b60008151111561264e5780518082602001fd5b6040517fd6bda27500000000000000000000000000000000000000000000000000000000815260040160405180910390fd5b600073ffffffffffffffffffffffffffffffffffffffff82169050919050565b60006126ab82612680565b9050919050565b6126bb816126a0565b82525050565b60006020820190506126d660008301846126b2565b92915050565b60008115159050919050565b6126f1816126dc565b82525050565b600060208201905061270c60008301846126e8565b92915050565b6000604051905090565b600080fd5b600080fd5b61272f816126a0565b811461273a57600080fd5b50565b60008135905061274c81612726565b92915050565b6000602082840312156127685761276761271c565b5b60006127768482850161273d565b91505092915050565b600081519050919050565b600082825260208201905092915050565b60005b838110156127b957808201518184015260208101905061279e565b60008484015250505050565b6000601f19601f8301169050919050565b60006127e18261277f565b6127eb818561278a565b93506127fb81856020860161279b565b612804816127c5565b840191505092915050565b6000602082019050818103600083015261282981846127d6565b905092915050565b6002811061283e57600080fd5b50565b60008135905061285081612831565b92915050565b60006020828403121561286c5761286b61271c565b5b600061287a84828501612841565b91505092915050565b6000819050919050565b61289681612883565b82525050565b600081519050919050565b600082825260208201905092915050565b60006128c38261289c565b6128cd81856128a7565b93506128dd81856020860161279b565b6128e6816127c5565b840191505092915050565b6000604082019050612906600083018561288d565b818103602083015261291881846128b8565b90509392505050565b6000602082019050612936600083018461288d565b92915050565b7f4e487b7100000000000000000000000000000000000000000000000000000000600052602160045260246000fd5b6002811061297c5761297b61293c565b5b50565b600081905061298d8261296b565b919050565b600061299d8261297f565b9050919050565b6129ad81612992565b82525050565b60006020820190506129c860008301846129a4565b92915050565b6129d781612883565b81146129e257600080fd5b50565b6000813590506129f4816129ce565b92915050565b600060208284031215612a1057612a0f61271c565b5b6000612a1e848285016129e5565b91505092915050565b600080fd5b600080fd5b600080fd5b60008083601f840112612a4c57612a4b612a27565b5b8235905067ffffffffffffffff811115612a6957612a68612a2c565b5b602083019150836001820283011115612a8557612a84612a31565b5b9250929050565b60008060208385031215612aa357612aa261271c565b5b600083013567ffffffffffffffff811115612ac157612ac0612721565b5b612acd85828601612a36565b92509250509250929050565b60008083601f840112612aef57612aee612a27565b5b8235905067ffffffffffffffff811115612b0c57612b0b612a2c565b5b602083019150836001820283011115612b2857612b27612a31565b5b9250929050565b60008060208385031215612b4657612b4561271c565b5b600083013567ffffffffffffffff811115612b6457612b63612721565b5b612b7085828601612ad9565b92509250509250929050565b60006060820190508181036000830152612b9681866127d6565b9050612ba5602083018561288d565b612bb2604083018461288d565b949350505050565b600080fd5b7f4e487b7100000000000000000000000000000000000000000000000000000000600052604160045260246000fd5b612bf7826127c5565b810181811067ffffffffffffffff82111715612c1657612c15612bbf565b5b80604052505050565b6000612c29612712565b9050612c358282612bee565b919050565b600067ffffffffffffffff821115612c5557612c54612bbf565b5b612c5e826127c5565b9050602081019050919050565b82818337600083830152505050565b6000612c8d612c8884612c3a565b612c1f565b905082815260208101848484011115612ca957612ca8612bba565b5b612cb4848285612c6b565b509392505050565b600082601f830112612cd157612cd0612a27565b5b8135612ce1848260208601612c7a565b91505092915050565b600060208284031215612d0057612cff61271c565b5b600082013567ffffffffffffffff811115612d1e57612d1d612721565b5b612d2a84828501612cbc565b91505092915050565b600080600060408486031215612d4c57612d4b61271c565b5b6000612d5a868287016129e5565b935050602084013567ffffffffffffffff811115612d7b57612d7a612721565b5b612d8786828701612ad9565b92509250509250925092565b60008060008060608587031215612dad57612dac61271c565b5b6000612dbb8782880161273d565b9450506020612dcc878288016129e5565b935050604085013567ffffffffffffffff811115612ded57612dec612721565b5b612df987828801612ad9565b925092505092959194509250565b6000604082019050612e1c60008301856126e8565b8181036020830152612e2e81846128b8565b90509392505050565b6000608082019050612e4c60008301876129a4565b612e5960208301866126b2565b612e6660408301856126b2565b612e7360608301846126e8565b95945050505050565b612e85816126dc565b8114612e9057600080fd5b50565b600081359050612ea281612e7c565b92915050565b60008060408385031215612ebf57612ebe61271c565b5b6000612ecd8582860161273d565b9250506020612ede85828601612e93565b9150509250929050565b60008060008060608587031215612f0257612f0161271c565b5b6000612f108782880161273d565b9450506020612f2187828801612e93565b935050604085013567ffffffffffffffff811115612f4257612f41612721565b5b612f4e87828801612a36565b925092505092959194509250565b7f4e487b7100000000000000000000000000000000000000000000000000000000600052602260045260246000fd5b60006002820490506001821680612fa357607f821691505b602082108103612fb657612fb5612f5c565b5b50919050565b7f53523a204e6f2066756e647320746f2077697468647261770000000000000000600082015250565b6000612ff260188361278a565b9150612ffd82612fbc565b602082019050919050565b6000602082019050818103600083015261302181612fe5565b9050919050565b7f53523a20526567697374727920616e6420456e747279506f696e74206d75737460008201527f2062652073657420666f722050524f544f434f4c206d6f646500000000000000602082015250565b600061308460398361278a565b915061308f82613028565b604082019050919050565b600060208201905081810360008301526130b381613077565b9050919050565b7f53523a2052656c6179206465636f6d6d697373696f6e65640000000000000000600082015250565b60006130f060188361278a565b91506130fb826130ba565b602082019050919050565b6000602082019050818103600083015261311f816130e3565b9050919050565b7f53523a204e6f2066756e647320617661696c61626c6520666f72207061796f7560008201527f7400000000000000000000000000000000000000000000000000000000000000602082015250565b600061318260218361278a565b915061318d82613126565b604082019050919050565b600060208201905081810360008301526131b181613175565b9050919050565b7f53523a20496e76616c6964206461797300000000000000000000000000000000600082015250565b60006131ee60108361278a565b91506131f9826131b8565b602082019050919050565b6000602082019050818103600083015261321d816131e1565b9050919050565b6000604082019050613239600083018561288d565b613246602083018461288d565b9392505050565b7f53523a2055524c2063616e6e6f7420626520656d707479000000000000000000600082015250565b600061328360178361278a565b915061328e8261324d565b602082019050919050565b600060208201905081810360008301526132b281613276565b9050919050565b600082905092915050565b60008190508160005260206000209050919050565b60006020601f8301049050919050565b600082821b905092915050565b6000600883026133267fffffffffffffffffffffffffffffffffffffffffffffffffffffffffffffffff826132e9565b61333086836132e9565b95508019841693508086168417925050509392505050565b6000819050919050565b600061336d61336861336384612883565b613348565b612883565b9050919050565b6000819050919050565b61338783613352565b61339b61339382613374565b8484546132f6565b825550505050565b600090565b6133b06133a3565b6133bb81848461337e565b505050565b5b818110156133df576133d46000826133a8565b6001810190506133c1565b5050565b601f821115613424576133f5816132c4565b6133fe846132d9565b8101602085101561340d578190505b613421613419856132d9565b8301826133c0565b50505b505050565b600082821c905092915050565b600061344760001984600802613429565b1980831691505092915050565b60006134608383613436565b9150826002028217905092915050565b61347a83836132b9565b67ffffffffffffffff81111561349357613492612bbf565b5b61349d8254612f8b565b6134a88282856133e3565b6000601f8311600181146134d757600084156134c5578287013590505b6134cf8582613454565b865550613537565b601f1984166134e5866132c4565b60005b8281101561350d578489013582556001820191506020850194506020810190506134e8565b8683101561352a5784890135613526601f891682613436565b8355505b6001600288020188555050505b50505050505050565b600061354c838561278a565b9350613559838584612c6b565b613562836127c5565b840190509392505050565b6000604082019050818103600083015261358781866127d6565b9050818103602083015261359c818486613540565b9050949350505050565b60006135b283856128a7565b93506135bf838584612c6b565b6135c8836127c5565b840190509392505050565b600060208201905081810360008301526135ee8184866135a6565b90509392505050565b60008151905061360681612e7c565b92915050565b6000602082840312156136225761362161271c565b5b6000613630848285016135f7565b91505092915050565b600081905092915050565b60006136508385613639565b935061365d838584612c6b565b82840190509392505050565b6000613676828486613644565b91508190509392505050565b7f53523a204f6e6c7920456e747279506f696e742063616e2063616c6c2074686960008201527f7320696e2050524f544f434f4c206d6f64650000000000000000000000000000602082015250565b60006136de60328361278a565b91506136e982613682565b604082019050919050565b6000602082019050818103600083015261370d816136d1565b9050919050565b7f53523a204d6f6e746873206d75737420626520706f7369746976650000000000600082015250565b600061374a601b8361278a565b915061375582613714565b602082019050919050565b600060208201905081810360008301526137798161373d565b9050919050565b7f53523a205072696365206e6f7420736574206f722072656c6179206465636f6d60008201527f6d697373696f6e65640000000000000000000000000000000000000000000000602082015250565b60006137dc60298361278a565b91506137e782613780565b604082019050919050565b6000602082019050818103600083015261380b816137cf565b9050919050565b7f4e487b7100000000000000000000000000000000000000000000000000000000600052601160045260246000fd5b600061384c82612883565b915061385783612883565b925082820261386581612883565b9150828204841483151761387c5761387b613812565b5b5092915050565b7f53523a20496e636f7272656374207061796d656e742076616c75650000000000600082015250565b60006138b9601b8361278a565b91506138c482613883565b602082019050919050565b600060208201905081810360008301526138e8816138ac565b9050919050565b7f53523a20496e76616c6964207075624b6579206c656e67746800000000000000600082015250565b600061392560198361278a565b9150613930826138ef565b602082019050919050565b6000602082019050818103600083015261395481613918565b9050919050565b7f53523a2043616e6e6f742073656e6420746f207a65726f206164647265737300600082015250565b6000613991601f8361278a565b915061399c8261395b565b602082019050919050565b600060208201905081810360008301526139c081613984565b9050919050565b7f53523a20496e73756666696369656e742062616c616e63650000000000000000600082015250565b60006139fd60188361278a565b9150613a08826139c7565b602082019050919050565b60006020820190508181036000830152613a2c816139f0565b9050919050565b6000606082019050613a48600083018761288d565b8181036020830152613a5b8185876135a6565b9050613a6a60408301846126e8565b95945050505050565b7f53523a20496e76616c696420656e74727920706f696e74206164647265737300600082015250565b6000613aa9601f8361278a565b9150613ab482613a73565b602082019050919050565b60006020820190508181036000830152613ad881613a9c565b9050919050565b7f53523a205265676973747279206d75737420626520736574206265666f72652060008201527f656e61626c696e672050524f544f434f4c206d6f646500000000000000000000602082015250565b6000613b3b60368361278a565b9150613b4682613adf565b604082019050919050565b60006020820190508181036000830152613b6a81613b2e565b9050919050565b7f53523a205265676973747279206e6f7420736574000000000000000000000000600082015250565b6000613ba760148361278a565b9150613bb282613b71565b602082019050919050565b60006020820190508181036000830152613bd681613b9a565b9050919050565b60008154613bea81612f8b565b613bf4818661278a565b94506001821660008114613c0f5760018114613c2557613c58565b60ff198316865281151560200286019350613c58565b613c2e856132c4565b60005b83811015613c5057815481890152600182019150602081019050613c31565b808801955050505b50505092915050565b6000606082019050613c7660008301876126b2565b8181036020830152613c888186613bdd565b90508181036040830152613c9d818486613540565b905095945050505050565b7f53523a20496e76616c6964207265676973747279206164647265737300000000600082015250565b6000613cde601c8361278a565b9150613ce982613ca8565b602082019050919050565b60006020820190508181036000830152613d0d81613cd1565b9050919050565b50565b6000613d24600083613639565b9150613d2f82613d14565b600082019050919050565b6000613d4582613d17565b9150819050919050565b6000613d5a82612883565b9150613d6583612883565b9250828201905080821115613d7d57613d7c613812565b5b92915050565b60006060820190508181036000830152613d9e8186886135a6565b9050613dad602083018561288d565b613dba604083018461288d565b95945050505050565b6000613dce8261289c565b613dd88185613639565b9350613de881856020860161279b565b80840191505092915050565b6000613e008284613dc3565b915081905092915050565b60006020820190508181036000830152613e2581846128b8565b905092915050565b7f53523a205075624b657920616c726561647920696e2075736520627920616e2060008201527f6163746976652075736572000000000000000000000000000000000000000000602082015250565b6000613e89602b8361278a565b9150613e9482613e2d565b604082019050919050565b60006020820190508181036000830152613eb881613e7c565b9050919050565b600082905092915050565b60008190508160005260206000209050919050565b601f821115613f2057613ef181613eca565b613efa846132d9565b81016020851015613f09578190505b613f1d613f15856132d9565b8301826133c0565b50505b505050565b613f2f8383613ebf565b67ffffffffffffffff811115613f4857613f47612bbf565b5b613f528254612f8b565b613f5d828285613edf565b6000601f831160018114613f8c5760008415613f7a578287013590505b613f848582613454565b865550613fec565b601f198416613f9a86613eca565b60005b82811015613fc257848901358255600182019150602085019450602081019050613f9d565b86831015613fdf5784890135613fdb601f891682613436565b8355505b6001600288020188555050505b50505050505050565b600060408201905081810360008301526140108185876135a6565b9050818103602083015261402481846128b8565b9050949350505050565b6140378261277f565b67ffffffffffffffff8111156140505761404f612bbf565b5b61405a8254612f8b565b614065828285613edf565b600060209050601f8311600181146140985760008415614086578287015190505b6140908582613454565b8655506140f8565b601f1984166140a686613eca565b60005b828110156140ce578489015182556001820191506020850194506020810190506140a9565b868310156140eb57848901516140e7601f891682613436565b8355505b6001600288020188555050505b50505050505056fea2646970667358221220923b81f4f3e293c8ae071d1066965dfbc0419ecab21db4e914698e174fff18f264736f6c634300081c0033",
  "linkReferences": {},
  "deployedLinkReferences": {}
}